:060000000A128A110E280D
:10000800FE00030EF5000A08F6007F08F7000A1242
:100018008A1127280A128A111128F801F901FA0110
:10002800FB01FC01FD0183120313A001A101A20140
:10003800A301A401A501A601A701A801A9018301A3
:100048000A128A110C290B1D2A282B284C288312E6
:10005800031389017A087B04031D332834283D28BB
:1000680078088700023089000130FA000030FB0070
:1000780049287A037B04031D42284328492820087D
:10008800870004308900FA01FB01FF3081000B1161
:100098000B1C4F2850287F28831203130618552855
:1000A80056285B280130F400740888077E288618D3
:1000B8005E285F286228013088027E280619652894
:1000C80066287E280130FC070318FD0A0030FD076A
:1000D80005307C067D04031D722873287528FC01F1
:1000E800FD017D08F1007C08F0000A128A115122F6
:1000F8000A128A110B10831203130C1F84288528F7
:1001080091280A128A11D9220A128A1171088312B7
:100118000313A9007008A8000C137708FF007608DD
:100128008A00750E8300FE0E7E0E090008308312C9
:1001380003132A062B04031DA228A328A72870301E
:10014800831603138F04043083122A062B04031D1D
:10015800AE28AF28B528831603130F088F396038E7
:100168008F00023083122A062B04031DBC28BD28E9
:10017800C328831603130F088F3950388F00831252
:100188002A032B04031DC928CA28D0288316031361
:100198000F088F3940388F00F43083122A06031D68
:1001A800D9282B03031DD928DA28E028831603133E
:1001B8000F088F3930388F00FA3083122A062B0443
:1001C800031DE728E828EE28831603130F088F3944
:1001D80020388F007D3083122A062B04031DF52852
:1001E800F628FC28831603130F088F3910388F0060
:1001F8001F3083122A062B04031D0329042908290A
:100208008F30831603138F05831603130F1408000A
:100218000A128A1120220A128A118312031308086B
:10022800B200B3013208A6003308A7002708803AB5
:10023800B2002908803A3202031D24292808260220
:100248000318272928292C298312031386172F29F5
:100258008312031386132908AB002808AA000A1280
:100268008A116F220A128A11831203132308AD0020
:100278002208AC000A128A11B7220A128A118312C4
:100288000313B200B3013208F8003308F900250857
:10029800AD002408AC000A128A11A2220A128A119F
:1002A80083120313B200B3013208A0003308A1007F
:1002B8009F185F2960291129033083120313B300A3
:1002C8009730B200B20B6629B30B66298312031369
:1002D8009F1411290A128A110E2892293F30CB291E
:1002E8000630CB295B30CB294F30CB296630CB2960
:1002F8006D30CB297D30CB290730CB297F30CB29F6
:100308006F30CB297730CB297C30CB293930CB29BA
:100318005E30CB297930CB297130CB298312031376
:100328002B08003A03199929CB292A08003A0319FE
:100338007229013A03197429033A03197629013AF3
:1003480003197829073A03197A29013A03197C29EC
:10035800033A03197E29013A031980290F3A031930
:100368008229013A03198429033A03198629013A93
:1003780003198829073A03198A29013A03198C298C
:10038800033A03198E29013A03199029CB29080049
:10039800831203132A082B04031DD329D429D72930
:1003A800C3309F05062A2A032B04031DDC29DD29F7
:1003B800E2291F08C33904389F00062A02302A069A
:1003C8002B04031DE829E929EE291F08C339083839
:1003D8009F00062A03302A062B04031DF429F52959
:1003E800FA291F08C3390C389F00062A04302A0648
:1003F8002B04031D002A012A062A1F08C3391038B6
:100408009F00062A831603131F129F1283120313D9
:100418001F083F3980389F00831603139F138312E8
:1004280003131F140C130B17831603130C178B17C6
:10043800831203139F1408000A128A1189220A12D0
:100448008A11FF300A128A11CC220A128A11083046
:1004580083120313AA000030AB000A128A119A20F3
:100468000A128A110A128A11E3220A128A1100302A
:1004780083120313AA00AB000A128A11CC210A12B4
:100488008A11831603138112811101158114011435
:10049800FF3083120313810008007108803AFF00BF
:1004A80080307F02031D5A2A0530700203185D2A26
:1004B8005E2A6A2A7008F200F20DF20D8312031305
:1004C8001F087206C33972069F006E2AC330831252
:1004D80003139F0508000F30831203132A05A20097
:1004E80000302B05A3002B08AD002A08AC0004300F
:1004F800FF002D0DAD0CAC0CFF0B7D2A0F302C0529
:10050800A40000302D05A500080083160317081461
:10051800881408158815081689017F308316031377
:100528008600FF3085008701880189018312031343
:100538008501860187018801890108008312031358
:100548002D08AB002C08AA000A128A1171210A1280
:100558008A1183120313AE00AF012E08B0002F08D2
:10056800B10030080800831203132D08AB002C08D3
:10057800AA000A128A1171210A128A11831203131E
:10058800AE00AF012E08B0002F08B10030080800F7
:1005980083120313AA008316031381138312031310
:1005A8002A088316031396000800831203131E08F3
:1005B800F200F3017208F0007308F10008000B1054
:0A05C8008B158B170B118B16080022
:08400000FF3FFF3FFF3FFF3FC0
:04400E00D420FF3F7C
:00000001FF
